S01900004172647553656E736F722053656E736F722E737265636B
S113000019C033C032C031C030C02FC0B5C12DC0FB
S11300102CC02BC02AC029C028C027C026C025C098
S113002024C023C0B3C1E0C120C01FC01EC01DC076
S11300301CC01BC011241FBECFEFD2E0DEBFCDBF5A
S113004011E0A0E0B1E0ECE5FAE002C005900D9209
S1130050AE31B107D9F721E0AEE1B1E001C01D92A4
S1130060A83FB207E1F726D0F7C4CACF10928500A3
S1130070109284005698559A81E0809381005D9A8D
S1130080B09800B605FC02C0B09BFBCF1092810073
S11300905D98569A5E988AE08A95F1F700C0B09907
S11300A005C0809184009091850002C080E090E0BA
S11300B0B09A089585B5816085BD3D9A80B78F77E4
S11300C080BF8FEF80937F00F89414BE0FB6F8942E
S11300D0A895809160008861809360001092600010
S11300E00FBE529A5A9A789487E690E0A7D10F2EC1
S11300F0FCE7CF2ED12CF02D0AE710E00F2EF7EC01
S11301002F2EF02D0F2EF8E7EF2EF12CF02D0F2EC1
S1130110F4E06F2EF1E07F2EF02D0F2EF9E28F2EFA
S1130120F1E09F2EF02D0F2EF9E04F2EF1E05F2E1F
S1130130F02D0F2EF8EBAF2EF1E0BF2EF02DC0E620
S1130140D0E00F2EF1E73F2EF02D209102013091E7
S1130150030180910001909101012817390708F4E7
S1130160EDC00FB6F894A8958091600088618093E3
S11301706000109260000FBE45985A988FE79EE386
S11301800197F1F700C0000020ECF6012083F8018C
S113019020828FED9EE20197F1F700C00000F70185
S11301A0808191819093320180933101F601208303
S11301B0F80120828FED9EE20197F1F700C0000064
S11301C0F70180819181909332018093310128EC71
S11301D0F6012083F80120828FED9EE20197F1F76A
S11301E000C00000F70180819181909330018093D9
S11301F02F0121ECF6012083F80120828FED9EE28D
S11302000197F1F700C00000F7018081918190937C
S11302102E0180932D01F80180818F77808326DF62
S1130220909327018093260121DF909325018093E9
S113023024011CDF909323018093220117DF909304
S113024021018093200112DF90931F0180931E01EE
S113025040912401509125012091260130912701DC
S1130260240F351F4091220150912301240F351F83
S11302704091200150912101240F351F280F391F6F
S1130280ADECBCEC17D19695879596958795A0E033
S1130290B0E08093290190932A01A0932B01B0939D
S11302A02C015A9A7F926F92809128011F928F930A
S11302B0F40181818F9380818F9380912E018F939C
S11302C080912D018F93809132018F938091310120
S11302D08F93809130018F9380912F018F935F9240
S11302E04F92BF92AF92F2D0FAE0FA95F1F700C0C4
S11302F02FEF8FE493EC215080409040E1F700C051
S11303000000C501C9D0809128018F5F8093280126
S1130310EFEFF3ED20E3E150F0402040E1F700C0BF
S113032000001092030110920201459A8DB79EB706
S113033040960FB6F8949EBF0FBE8DBF8091020108
S11303409091030101969093030180930201F89424
S11303508881806188833882388283B7817F846012
S113036083BF83B7816083BF85B7806685BF8F7D78
S113037085BF78948895E9CE1F920F920FB60F929D
S113038011240F900FBE0F901F9018951F920F927B
S11303900FB60F9211242F938F939F93EF93FF9394
S11303A08091C0002091C6008871E0913501EF5F13
S11303B0EF7390913401E91739F0E0933501F0E0DF
S11303C0E85CFE4F208301C082E090913301892BC9
S11303D080933301FF91EF919F918F912F910F9013
S11303E00FBE0F901F9018951F920F920FB60F9289
S11303F011248F939F93EF93FF93909137018091F2
S11304003601981769F0E0913601EF5FEF73E093DE
S11304103601F0E0E858FE4F80818093C60005C0A5
S1130420E1ECF0E080818F7D8083FF91EF919F91DB
S11304308F910F900FBE0F901F9018951092370157
S1130440109236011092350110923401992324F44C
S113045022E02093C0009F779093C5008093C4004E
S113046088E98093C10086E08093C20008952091BA
S113047037012F5F2F73909136012917E1F3E22F93
S1130480F0E0E858FE4F808320933701E1ECF0E080
S11304908081806280830895CF93DF93EC0188810B
S11304A0882329F02196E3DF89918111FCCFDF9124
S11304B0CF910895A29FB001B39FC001A39F01D023
S11304C0B29F700D811D1124911D0895AEE0B0E01E
S11304D0EBE6F2E098C20D891E8986E08C831A83CC
S11304E009838FEF9FE79E838D83AE01475E5F4F45
S11304F06F89788DCE01019609D02F813885F80156
S1130500E20FF31F10822E96E4E099C2ACE0B0E053
S1130510EBE8F2E06AC27C016B018A01FC011782FC
S11305201682838181FFB0C1CE0101964C01F7018F
S11305309381F60193FD859193FF81916F01882347
S113054009F49EC1853239F493FD859193FF81911D
S11305506F01853221F4B70190E0B1D1E8CF512C7D
S1130560312C20E02032A0F48B3269F030F4803258
S113057059F0833269F420612CC08D3239F0803314
S113058039F4216026C02260246023C0286021C081
S113059027FD27C030ED380F3A3078F426FF06C027
S11305A0FAE05F9E300D1124532E13C08AE0389E6A
S11305B0300D1124332E20620CC08E3221F426FD1E
S11305C05FC1206406C08C3611F4206802C08836EE
S11305D041F4F60193FD859193FF81916F0181119F
S11305E0C1CF982F9F7D9554933028F40C5F1F4FF3
S11305F0FFE3F9830DC0833631F0833771F083351F
S113060009F057C021C0F801808189830E5F1F4F14
S113061044244394512C540114C03801F2E06F0E69
S1130620711CF801A080B18026FF03C0652D70E025
S113063002C06FEF7FEFC5012C8736D12C018301F7
S11306402C852F77222E16C03801F2E06F0E711C14
S1130650F801A080B18026FF03C0652D70E002C0C0
S11306606FEF7FEFC5012C8714D12C012C852068F6
S1130670222E830123FC19C0832D90E048165906CD
S1130680A0F4B70180E290E01AD13A94F5CFF501D5
S113069027FC859127FE81915F01B70190E00FD17E
S11306A031103A94F1E04F1A51084114510479F78A
S11306B0DEC0843611F0893631F5F80127FF07C012
S11306C060817181828193810C5F1F4F08C06081BA
S11306D07181072E000C880B990B0E5F1F4F2F762C
S11306E0722E97FF09C090958095709561957F4F04
S11306F08F4F9F4F2068722E2AE030E0A40117D15B
S1130700A82EA81843C0853729F42F7EB22E2AE0DC
S113071030E025C0F22FF97FBF2E8F36C1F018F4D8
S1130720883579F0ADC0803719F0883721F0A8C03A
S11307302F2F2061B22EB4FE0DC08B2D8460B82EF5
S113074009C024FF0AC09F2F9660B92E06C028E076
S113075030E005C020E130E002C020E132E0F801E1
S1130760B7FE07C060817181828193810C5F1F4F46
S113077006C06081718180E090E00E5F1F4FA4018C
S1130780D6D0A82EA818FB2DFF777F2E76FE0BC09F
S1130790372D3E7FA51450F474FE0AC072FC08C0C5
S11307A0372D3E7E05C0BA2C372D03C0BA2C01C0AC
S11307B0B52C34FF0DC0FE01EA0DF11D808180339C
S11307C011F4397E09C032FF06C0B394B39404C057
S11307D0832F867809F0B39433FD12C030FF06C02E
S11307E05A2CB31418F4530C5B18B32CB31460F4E0
S11307F0B70180E290E03C8762D0B3943C85F6CFA9
S1130800B31410F43B1801C0312C34FF11C0B701EC
S113081080E390E03C8753D03C8532FF16C031FD25
S113082003C088E790E002C088E590E0B7010CC0FF
S1130830832F867851F031FF02C08BE201C080E241
S113084037FD8DE2B70190E03AD0A51430F4B7013A
S113085080E390E034D05A94F8CFAA94F401EA0DDE
S1130860F11D8081B70190E02AD0A110F6CF33208A
S113087009F45DCEB70180E290E021D03A94F7CF3D
S1130880F7018681978102C08FEF9FEF2C96E2E1FA
S1130890C8C0FC010590615070400110D8F78095E4
S11308A090958E0F9F1F0895FC0161507040019038
S11308B00110D8F7809590958E0F9F1F08950F9380
S11308C01F93CF93DF93FB01238121FD03C08FEF9F
S11308D09FEF28C022FF16C04681578124813581AD
S11308E04217530744F4A081B1819D012F5F3F4F0C
S11308F0318320838C93268137812F5F3F4F378349
S1130900268310C0EB01092F182F0084F185E02DF8
S11309100995892BE1F68E819F8101969F838E83B1
S1130920812F902FDF91CF911F910F910895FA019C
S1130930AA27283051F1203181F1E8946F936E7F1A
S11309406E5F7F4F8F4F9F4FAF4FB1E03ED0B4E00B
S11309503CD0670F781F891F9A1FA11D680F791F4C
S11309608A1F911DA11D6A0F711D811D911DA11D5D
S113097020D009F468943F912AE0269F112430196D
S1130980305D3193DEF6CF010895462F4770405D08
S11309904193B3E00FD0C9F7F6CF462F4F70405DB7
S11309A04A3318F0495D31FD4052419302D0A9F712
S11309B0EACFB4E0A6959795879577956795BA950C
S11309C0C9F700976105710508959B01AC010A2ED2
S11309D006945795479537952795BA95C9F7620FA9
S11309E0731F841F951FA01D08952F923F924F924D
S11309F05F926F927F928F929F92AF92BF92CF92AB
S1130A00DF92EF92FF920F931F93CF93DF93CDB7B3
S1130A10DEB7CA1BDB0B0FB6F894DEBF0FBECDBF2B
S1130A2009942A88398848885F846E847D848C84FC
S1130A309B84AA84B984C884DF80EE80FD800C8105
S1130A401B81AA81B981CE0FD11D0FB6F894DEBFE8
S10F0A500FBECDBFED010895F894FFCF58
S1130A5CF22BF22B39303030003C25643B25643BBF
S1110A6C25643B25643B25643B25733E0D0049
S9030000FC
