S01200004172647553656E736F722E737265630C
S113000019C033C032C031C030C02FC08AC12DC026
S11300102CC02BC02AC029C028C027C026C025C098
S113002024C023C060C28DC220C01FC01EC01DC01A
S11300301CC01BC011241FBECFEFD2E0DEBFCDBF5A
S113004011E0A0E0B1E0E6EBFBE002C005900D9208
S1130050A23BB107D9F722E0A2EBB1E001C01D92A7
S1130060A938B207E1F767D1A4C5CACFEAE7F0E03F
S1130070808187608083ACE7B0E08C9180648C934E
S113008080818F7D80838081806C808381E008956E
S1130090569A559A83E384BD89E085BD8FE087BD78
S11300A088E088BD84B58F7C84BD81E0089580E0BC
S11300B091E09FD22FEF87EA91E621508040904053
S11300C0E1F700C0000084E091E093D22FEF89E6CD
S11300D098E1215080409040E1F700C000008FE09B
S11300E091E087D28FE39CE90197F1F700C000000B
S11300F084E191E07ED28DE091E07BD29FEF21EE0E
S113010084E0915020408040E1F700C000008DE180
S113011091E06FD28FE39CE90197F1F700C00000F2
S113012082E291E066D28DE091E063D29FEF21EE0E
S113013084E0915020408040E1F700C000008BE251
S113014091E057D29FEF21EE84E09150204080400F
S1130150E1F700C0000084E391E04BD29FEF21EE71
S113016084E0915020408040E1F700C000008CE31F
S113017091E03FD29FEF21EE84E0915020408040F7
S1130180E1F700C0000086E491E033D29FEF21EE56
S113019084E0915020408040E1F700C0000080E5F9
S11301A091E027D29FEF21EE84E0915020408040DF
S11301B0E1F700C0000088E591E01BD29FEF27EA39
S11301C081E6915020408040E1F700C000008EE5B8
S11301D091E00FD29FEF23ED80E3915020408040C7
S11301E0E1F700C0000081E00895CF93DF931092FF
S11301F0B7011092B6015A98EAE7F0E0908190684E
S11302009083908190649083EFE9FFE03197F1F758
S113021000C00000823061F128F4882341F081306D
S1130220A9F040C0833069F18430A1F13BC084B5AA
S1130230806384BDECE7F0E08081807F80838FE978
S11302409FE00197F1F700C000002CC084B58063E3
S113025084BDECE7F0E08081807F808380818260D0
S11302608083EFE9FFE03197F1F700C000001AC086
S1130270ECE7F0E08081807F8083808181608083EF
S113028011C0ECE7F0E08081807F8083808183600F
S1130290808308C0ECE7F0E08081807F80838081E8
S11302A088608083EDE3F2E049E452E0AAE7B0E03D
S11302B0C8E7D0E08C9180648C938FE39FE1019731
S11302C0F1F700C000001182108228813981219346
S11302D031938091B6019091B701280F391F309363
S11302E0B7012093B601E417F50721F7ABEABAEAA0
S11302F08ED196958795969587959093B70180931F
S1130300B601EAE7F0E080818F77808384B58F7C43
S113031084BD5A9A8091B6019091B701DF91CF9133
S113032008951F920F920FB60F9211240F900FBED3
S11303300F901F901895F89414BEAADE97DE529A77
S11303405A9A3D9A8FEF80937F000FB6F894A89540
S113035080916000886180936000109260000FBEFD
S1130360789487E690E017D18FE19EE40197F1F746
S113037000C000009CDE9FEF27EA81E691502040F8
S11303808040E1F700C0000084E691E032D184E8C7
S113039091E02FD19FEF27EA81E6915020408040E1
S11303A0E1F700C00000459A0F2EF0EAEF2EF1E0CD
S11303B0FF2EF02D09E412E0C0E6D0E00F2EF8E1A4
S11303C0BF2EF02D0F2EFEE0CF2EF02D0F2EF6E4D3
S11303D0DF2EF02D8091B2019091B301449708F47F
S11303E056C00FB6F894A8958091600088618093F8
S11303F06000109260000FBE45988FE79EE301975E
S1130400F1F700C000001092B3011092B20180E035
S1130410ECDE482E392E81E0E8DE682E592E82E08B
S1130420E4DE882E792E83E0E0DEA82E992E84E087
S1130430DCDE8091B4019091B5019C012F5F3F4FA8
S11304403093B5012093B4019F938F933F924F92C1
S11304505F926F927F928F929F92AF92FF92EF92F0
S11304601F930F93E0D0C801C4D09FEF23EF81E026
S1130470915020408040E1F700C00000459A8DB7BC
S11304809EB70E960FB6F8949EBF0FBE8DBF809197
S1130490B2019091B30101969093B3018093B2019C
S11304A0F8948881806188830FB6F894A895B092F7
S11304B060000FBEC0926000888180618883D8820A
S11304C0A895789493B7917F946093BF83B7816024
S11304D083BF85B7806685BF8F7D85BF889593B7B9
S11304E09E7F93BF77CF1F920F920FB60F92112466
S11304F02F938F939F93EF93FF938091C00020914C
S1130500C6008871E091BA01EF5FEF739091B90171
S1130510E91739F0E093BA01F0E0E354FE4F208389
S113052001C082E09091B801892B8093B801FF91BA
S1130530EF919F918F912F910F900FBE0F901F906D
S113054018951F920F920FB60F9211248F939F93B9
S1130550EF93FF939091BC018091BB01981769F0D0
S1130560E091BB01EF5FEF73E093BB01F0E0E35078
S1130570FE4F80818093C60005C0E1ECF0E08081ED
S11305808F7D8083FF91EF919F918F910F900FBE8C
S11305900F901F9018951092BC011092BB011092FD
S11305A0BA011092B901992324F422E02093C000E7
S11305B09F779093C5008093C40088E98093C1001D
S11305C086E08093C20008952091BC012F5F2F73B1
S11305D09091BB012917E1F3E22FF0E0E350FE4FC5
S11305E080832093BC01E1ECF0E080818062808311
S11305F00895CF93DF93EC018881882329F0219615
S1130600E3DF89918111FCCFDF91CF910895A29FFF
S1130610B001B39FC001A39F01D0B29F700D811D93
S11306201124911D0895AEE0B0E0E8E1F3E098C232
S11306300D891E8986E08C831A8309838FEF9FE7D7
S11306409E838D83AE01475E5F4F6F89788DCE01A7
S1130650019609D02F813885F801E20FF31F10822B
S11306602E96E4E099C2ACE0B0E0E8E3F3E06AC2BD
S11306707C016B018A01FC0117821682838181FF50
S1130680B0C1CE0101964C01F7019381F60193FDAF
S1130690859193FF81916F01882309F49EC185326E
S11306A039F493FD859193FF81916F01853221F493
S11306B0B70190E0B1D1E8CF512C312C20E02032A9
S11306C0A0F48B3269F030F4803259F0833269F44B
S11306D020612CC08D3239F0803339F4216026C07A
S11306E02260246023C0286021C027FD27C030ED8C
S11306F0380F3A3078F426FF06C0FAE05F9E300DDA
S11307001124532E13C08AE0389E300D1124332E49
S113071020620CC08E3221F426FD5FC1206406C025
S11307208C3611F4206802C0883641F4F60193FD3A
S1130730859193FF81916F018111C1CF982F9F7D86
S11307409554933028F40C5F1F4FFFE3F9830DC0D9
S1130750833631F0833771F0833509F057C021C0F7
S1130760F801808189830E5F1F4F44244394512CE8
S1130770540114C03801F2E06F0E711CF801A0801E
S1130780B18026FF03C0652D70E002C06FEF7FEFDC
S1130790C5012C8736D12C0183012C852F77222E7D
S11307A016C03801F2E06F0E711CF801A080B18010
S11307B026FF03C0652D70E002C06FEF7FEFC50117
S11307C02C8714D12C012C852068222E830123FC34
S11307D019C0832D90E048165906A0F4B70180E2B1
S11307E090E01AD13A94F5CFF50127FC859127FEC4
S11307F081915F01B70190E00FD131103A94F1E09B
S11308004F1A51084114510479F7DEC0843611F0AF
S1130810893631F5F80127FF07C060817181828133
S113082093810C5F1F4F08C060817181072E000CFB
S1130830880B990B0E5F1F4F2F76722E97FF09C0FE
S113084090958095709561957F4F8F4F9F4F20684D
S1130850722E2AE030E0A40117D1A82EA81843C0B4
S1130860853729F42F7EB22E2AE030E025C0F22FFE
S1130870F97FBF2E8F36C1F018F4883579F0ADC0FA
S1130880803719F0883721F0A8C02F2F2061B22EAD
S1130890B4FE0DC08B2D8460B82E09C024FF0AC09D
S11308A09F2F9660B92E06C028E030E005C020E1F5
S11308B030E002C020E132E0F801B7FE07C06081F9
S11308C07181828193810C5F1F4F06C060817181A9
S11308D080E090E00E5F1F4FA401D6D0A82EA81888
S11308E0FB2DFF777F2E76FE0BC0372D3E7FA514A0
S11308F050F474FE0AC072FC08C0372D3E7E05C059
S1130900BA2C372D03C0BA2C01C0B52C34FF0DC04E
S1130910FE01EA0DF11D8081803311F4397E09C096
S113092032FF06C0B394B39404C0832F867809F0D1
S1130930B39433FD12C030FF06C05A2CB31418F41C
S1130940530C5B18B32CB31460F4B70180E290E04D
S11309503C8762D0B3943C85F6CFB31410F43B18B3
S113096001C0312C34FF11C0B70180E390E03C8713
S113097053D03C8532FF16C031FD03C088E790E0B8
S113098002C088E590E0B7010CC0832F867851F04F
S113099031FF02C08BE201C080E237FD8DE2B70176
S11309A090E03AD0A51430F4B70180E390E034D05D
S11309B05A94F8CFAA94F401EA0DF11D8081B7018D
S11309C090E02AD0A110F6CF332009F45DCEB70110
S11309D080E290E021D03A94F7CFF70186819781A5
S11309E002C08FEF9FEF2C96E2E1C8C0FC01059096
S11309F0615070400110D8F7809590958E0F9F1F1D
S1130A000895FC016150704001900110D8F7809561
S1130A1090958E0F9F1F08950F931F93CF93DF938D
S1130A20FB01238121FD03C08FEF9FEF28C022FF2C
S1130A3016C046815781248135814217530744F4F7
S1130A40A081B1819D012F5F3F4F318320838C931F
S1130A50268137812F5F3F4F3783268310C0EB01F8
S1130A60092F182F0084F185E02D0995892BE1F6D3
S1130A708E819F8101969F838E83812F902FDF919A
S1130A80CF911F910F910895FA01AA27283051F1AF
S1130A90203181F1E8946F936E7F6E5F7F4F8F4FAB
S1130AA09F4FAF4FB1E03ED0B4E03CD0670F781F0A
S1130AB0891F9A1FA11D680F791F8A1F911DA11DEF
S1130AC06A0F711D811D911DA11D20D009F4689428
S1130AD03F912AE0269F11243019305D3193DEF6D0
S1130AE0CF010895462F4770405D4193B3E00FD086
S1130AF0C9F7F6CF462F4F70405D4A3318F0495D71
S1130B0031FD4052419302D0A9F7EACFB4E0A69553
S1130B109795879577956795BA95C9F70097610575
S1130B20710508959B01AC010A2E069457954795CB
S1130B3037952795BA95C9F7620F731F841F951FC0
S1130B40A01D08952F923F924F925F926F927F92D1
S1130B508F929F92AF92BF92CF92DF92EF92FF92C9
S1130B600F931F93CF93DF93CDB7DEB7CA1BDB0B75
S1130B700FB6F894DEBF0FBECDBF09942A8839881A
S1130B8048885F846E847D848C849B84AA84B98421
S1130B90C884DF80EE80FD800C811B81AA81B9812D
S1130BA0CE0FD11D0FB6F894DEBF0FBECDBFED0141
S1090BB00895F894FFCF44
S1130BB62B2B2B004154494420343030300D004156
S1130BC654444800303031334132303000415444CB
S1130BD64C0034304535334133410041544E4820AE
S1130BE631450D0041544E4F20330D0041545350AE
S1130BF6203744300D004154534E203231430D000A
S1130C064154534D20310D00415457520D00415467
S1130C16434E0D0048454C4C4F2C2057454C434FF2
S1130C264D4520544F204152445553454E534F523F
S1130C3621200A004172647553656E736F722069D0
S1130C467320636F6E6669677572656421200A0096
S1130C563C25753B25753B25753B25753B25753E22
S1050C66000088
S9030000FC
